:100000000200980009121B242D363F48515A636C98
:10001000757E879099A2ABB4BDC6CFD8E1EAF3FC58
:10002000FFFFFFFFFFFFFFFFFFFFFFFFFFFFFFFFE0
:10003000FFFFFFFFFFFFF6EDE4DBD2C9C0B7AEA5BF
:100040009C938A81786F665D544B42393032000050
:1000500000000000000000000000000000000000A0
:1000600000000000000000801F752000900003E4E5
:1000700093F5900520E520B46403752000E52090F9
:10008000000393F59080EC2280DFE4F5D0758121A8
:0B009000F52012006702000002008A49
:00000001FF
