:0300000002002ECD
:10002B000200847581707590FF75303275310075E3
:10003B00CBFD75CAA875CDFD75CCA875C800C2CF10
:10004B00C2CED290D2ADD2AFD2CA3091143092027E
:10005B0080F8117B2092F37530323092FD117B804A
:10006B00E9117B2091E47530503091FD117B80DAE2
:10007B007F147EFADEFEDFFA22C0E0C0D0C2CFC210
:10008B00CEE531C395304004C2908002D290053149
:0D009B00E531B46403753100D0D0D0E032FF
:00000001FF
