:03000000020020DB
:100020007590F012010512016074C012014678004B
:10003000120071B4FF0280F8B4430512005580F03D
:10004000B8100280EB1201530812016B120071B458
:10005000FFFA020030E8C0E074C012014679107463
:1000600020120153D9F974C0120146D0E0F878008B
:1000700022C290120100E59054F0B4F02FD290C249
:1000800091120100E59054F0B4F036D291C2921270
:100090000100E59054F0B4F03DD292C293120100F9
:1000A000E59054F0B4F044D29374FF22B4E00374AA
:1000B0003722B4D003743822B4B003743922742BBD
:1000C00022B4E003743422B4D003743522B4B003F4
:1000D000743622742D22B4E003743122B4D0037438
:1000E0003222B4B003743322742A22B4E00374437E
:1000F00022B4D003743022B4B003743D22742F2292
:100100007F05DFFE22743012014612017074301236
:1001100001461201707430120146120170743812D7
:100120000146120170740812014612017074011226
:1001300001461201707406120146120170740F120A
:10014000014612017022F580C2A1C2A2D2A0000015
:10015000C2A022F580D2A1C2A2D2A00000C2A022D9
:10016000E4936006120153A380F6227F0ADFFE2289
:090170007F327E64DEFEDFFA221C
:00000001FF
